{
  "_format": "hh-sol-artifact-1",
  "contractName": "Transaction",
  "sourceName": "contracts/Election.sol",
  "abi": [
    {
      "anonymous": false,
      "inputs": [
        {
          "indexed": false,
          "internalType": "address",
          "name": "from",
          "type": "address"
        },
        {
          "indexed": false,
          "internalType": "string",
          "name": "user_id",
          "type": "string"
        },
        {
          "indexed": false,
          "internalType": "string",
          "name": "election_id",
          "type": "string"
        },
        {
          "indexed": false,
          "internalType": "string",
          "name": "candidate_id",
          "type": "string"
        },
        {
          "indexed": false,
          "internalType": "uint256",
          "name": "timestamp",
          "type": "uint256"
        }
      ],
      "name": "Transfer",
      "type": "event"
    },
    {
      "inputs": [
        {
          "internalType": "string",
          "name": "user_id",
          "type": "string"
        },
        {
          "internalType": "string",
          "name": "election_id",
          "type": "string"
        },
        {
          "internalType": "string",
          "name": "candidate_id",
          "type": "string"
        }
      ],
      "name": "addToBlockchain",
      "outputs": [],
      "stateMutability": "nonpayable",
      "type": "function"
    },
    {
      "inputs": [],
      "name": "getAllTransaction",
      "outputs": [
        {
          "components": [
            {
              "internalType": "address",
              "name": "from",
              "type": "address"
            },
            {
              "internalType": "string",
              "name": "user_id",
              "type": "string"
            },
            {
              "internalType": "string",
              "name": "election_id",
              "type": "string"
            },
            {
              "internalType": "string",
              "name": "candidate_id",
              "type": "string"
            },
            {
              "internalType": "uint256",
              "name": "timestamp",
              "type": "uint256"
            }
          ],
          "internalType": "struct Transaction.TransactionStruct[]",
          "name": "",
          "type": "tuple[]"
        }
      ],
      "stateMutability": "view",
      "type": "function"
    },
    {
      "inputs": [],
      "name": "getTransactionCount",
      "outputs": [
        {
          "internalType": "uint256",
          "name": "",
          "type": "uint256"
        }
      ],
      "stateMutability": "view",
      "type": "function"
    }
  ],
  "bytecode": "0x608060405234801561001057600080fd5b50610d1a806100206000396000f3fe608060405234801561001057600080fd5b50600436106100415760003560e01c80632e7700f0146100465780634cf7acb114610064578063add6415d14610080575b600080fd5b61004e61009e565b60405161005b919061048f565b60405180910390f35b61007e60048036038101906100799190610604565b6100a7565b005b610088610201565b60405161009591906108c0565b60405180910390f35b60008054905090565b60016000808282546100b99190610911565b9250508190555060016040518060a001604052803373ffffffffffffffffffffffffffffffffffffffff16815260200185815260200184815260200183815260200142815250908060018154018082558091505060019003906000526020600020906005020160009091909190915060008201518160000160006101000a81548173ffffffffffffffffffffffffffffffffffffffff021916908373ffffffffffffffffffffffffffffffffffffffff16021790555060208201518160010190816101849190610b51565b50604082015181600201908161019a9190610b51565b5060608201518160030190816101b09190610b51565b506080820151816004015550507f6f9858777547ef617745fb7aa82875776b458db259bac5a7f0761b16e870f0f733848484426040516101f4959493929190610c7c565b60405180910390a1505050565b60606001805480602002602001604051908101604052809291908181526020016000905b8282101561046d57838290600052602060002090600502016040518060a00160405290816000820160009054906101000a900473ffffffffffffffffffffffffffffffffffffffff1673ffffffffffffffffffffffffffffffffffffffff1673ffffffffffffffffffffffffffffffffffffffff1681526020016001820180546102ae90610974565b80601f01602080910402602001604051908101604052809291908181526020018280546102da90610974565b80156103275780601f106102fc57610100808354040283529160200191610327565b820191906000526020600020905b81548152906001019060200180831161030a57829003601f168201915b5050505050815260200160028201805461034090610974565b80601f016020809104026020016040519081016040528092919081815260200182805461036c90610974565b80156103b95780601f1061038e576101008083540402835291602001916103b9565b820191906000526020600020905b81548152906001019060200180831161039c57829003601f168201915b505050505081526020016003820180546103d290610974565b80601f01602080910402602001604051908101604052809291908181526020018280546103fe90610974565b801561044b5780601f106104205761010080835404028352916020019161044b565b820191906000526020600020905b81548152906001019060200180831161042e57829003601f168201915b5050505050815260200160048201548152505081526020019060010190610225565b50505050905090565b6000819050919050565b61048981610476565b82525050565b60006020820190506104a46000830184610480565b92915050565b6000604051905090565b600080fd5b600080fd5b600080fd5b600080fd5b6000601f19601f8301169050919050565b7f4e487b7100000000000000000000000000000000000000000000000000000000600052604160045260246000fd5b610511826104c8565b810181811067ffffffffffffffff821117156105305761052f6104d9565b5b80604052505050565b60006105436104aa565b905061054f8282610508565b919050565b600067ffffffffffffffff82111561056f5761056e6104d9565b5b610578826104c8565b9050602081019050919050565b82818337600083830152505050565b60006105a76105a284610554565b610539565b9050828152602081018484840111156105c3576105c26104c3565b5b6105ce848285610585565b509392505050565b600082601f8301126105eb576105ea6104be565b5b81356105fb848260208601610594565b91505092915050565b60008060006060848603121561061d5761061c6104b4565b5b600084013567ffffffffffffffff81111561063b5761063a6104b9565b5b610647868287016105d6565b935050602084013567ffffffffffffffff811115610668576106676104b9565b5b610674868287016105d6565b925050604084013567ffffffffffffffff811115610695576106946104b9565b5b6106a1868287016105d6565b9150509250925092565b600081519050919050565b600082825260208201905092915050565b6000819050602082019050919050565b600073ffffffffffffffffffffffffffffffffffffffff82169050919050565b6000610702826106d7565b9050919050565b610712816106f7565b82525050565b600081519050919050565b600082825260208201905092915050565b60005b83811015610752578082015181840152602081019050610737565b60008484015250505050565b600061076982610718565b6107738185610723565b9350610783818560208601610734565b61078c816104c8565b840191505092915050565b6107a081610476565b82525050565b600060a0830160008301516107be6000860182610709565b50602083015184820360208601526107d6828261075e565b915050604083015184820360408601526107f0828261075e565b9150506060830151848203606086015261080a828261075e565b915050608083015161081f6080860182610797565b508091505092915050565b600061083683836107a6565b905092915050565b6000602082019050919050565b6000610856826106ab565b61086081856106b6565b935083602082028501610872856106c7565b8060005b858110156108ae578484038952815161088f858261082a565b945061089a8361083e565b925060208a01995050600181019050610876565b50829750879550505050505092915050565b600060208201905081810360008301526108da818461084b565b905092915050565b7f4e487b7100000000000000000000000000000000000000000000000000000000600052601160045260246000fd5b600061091c82610476565b915061092783610476565b925082820190508082111561093f5761093e6108e2565b5b92915050565b7f4e487b7100000000000000000000000000000000000000000000000000000000600052602260045260246000fd5b6000600282049050600182168061098c57607f821691505b60208210810361099f5761099e610945565b5b50919050565b60008190508160005260206000209050919050565b60006020601f8301049050919050565b600082821b905092915050565b600060088302610a077fffffffffffffffffffffffffffffffffffffffffffffffffffffffffffffffff826109ca565b610a1186836109ca565b95508019841693508086168417925050509392505050565b6000819050919050565b6000610a4e610a49610a4484610476565b610a29565b610476565b9050919050565b6000819050919050565b610a6883610a33565b610a7c610a7482610a55565b8484546109d7565b825550505050565b600090565b610a91610a84565b610a9c818484610a5f565b505050565b5b81811015610ac057610ab5600082610a89565b600181019050610aa2565b5050565b601f821115610b0557610ad6816109a5565b610adf846109ba565b81016020851015610aee578190505b610b02610afa856109ba565b830182610aa1565b50505b505050565b600082821c905092915050565b6000610b2860001984600802610b0a565b1980831691505092915050565b6000610b418383610b17565b9150826002028217905092915050565b610b5a82610718565b67ffffffffffffffff811115610b7357610b726104d9565b5b610b7d8254610974565b610b88828285610ac4565b600060209050601f831160018114610bbb5760008415610ba9578287015190505b610bb38582610b35565b865550610c1b565b601f198416610bc9866109a5565b60005b82811015610bf157848901518255600182019150602085019450602081019050610bcc565b86831015610c0e5784890151610c0a601f891682610b17565b8355505b6001600288020188555050505b505050505050565b610c2c816106f7565b82525050565b600082825260208201905092915050565b6000610c4e82610718565b610c588185610c32565b9350610c68818560208601610734565b610c71816104c8565b840191505092915050565b600060a082019050610c916000830188610c23565b8181036020830152610ca38187610c43565b90508181036040830152610cb78186610c43565b90508181036060830152610ccb8185610c43565b9050610cda6080830184610480565b969550505050505056fea2646970667358221220d650437c71da853b4e8d6aa7acefecd7f26eb2856ae8762d69398412b30beb2664736f6c63430008110033",
  "linkReferences": {},
  "deployedLinkReferences": {}
}